:020000040000FA
:1000000000008A150A120028F200030E8301F10095
:100010000A088A01F000040883160313D000831233
:1000200003130B11B03081008A110A12A0208A112B
:100030000A1283160313CD004D08031D25288A15C7
:100040000A12C1218A110A1235288A110A12A02027
:100050008A110A1283160313CD004D08031935289F
:100060008A150A12A7218A110A128316031350084F
:1000700083120313840070088A008301710E8300C9
:10008000F20E720E09000A3083120313D30703180D
:10009000D40A831203135508031D5C28831203132B
:1000A00053080A3A031D57285408003A031D9F2895
:1000B000013083120313D500831203135508013A4C
:1000C000031D7328053083120313D3070318D40AC2
:1000D00053080F3A031D6F285408003A031D9F2848
:1000E00083120313D50183120313D301D40100300B
:1000F000831603134F04031D842883120313D601B0
:10010000013083160313CF00831203135608FF0038
:10011000831603134F086A2283120313CA0083163F
:1001200003134F08FF00831203134A08FA208A15AD
:100130000A121A218A110A1283120313D600080028
:100140000030831603134B02031DA82803304A0214
:100150000318AC280030F928831603134A08033A21
:10016000031DB6284B08003A0319CA28003083162D
:1001700003134B02031DBE2805304A020318CC2886
:100180000030831603134B02031DC82806304A02B1
:10019000031CCC280130F928831603134A08053ABA
:1001A000031DD6284B08003A0319EA2800308316AD
:1001B00003134B02031DDE2804304A02031CEC2803
:1001C0000030831603134B02031DE82809304A024E
:1001D0000318EC280230F928831603134A08093A59
:1001E000031DF8284B08003A031DF8280330F928AE
:1001F0000030080083120313C7007F08C800C9013C
:100200004708013A0319C90A490803191129831239
:1002100003134C08013A031D202A4D08003A031D20
:10022000202A0A3083120313CB074B08283A0319FC
:10023000692ACB01831203134808013A031D6C2974
:10024000831203135108033A031D33295208003A5D
:10025000031D332983120313CC01CD010130831216
:100260000313CE006C2983120313CF0A0319D00A9B
:10027000013083120313CC00CD0183120313CE018E
:10028000831203134F080A3A031D6C295008003AE1
:10029000031D6C29CF01D0010030831203135202D9
:1002A000031D54290330510203185C2983120313E0
:1002B000D10A0319D20A6C290030831203135202A7
:1002C000031D642904305102031C6C29FF30831282
:1002D0000313D107031CD203831203134808023A05
:1002E000031DBF29831203135108053A031D8529F5
:1002F0005208003A031D852983120313CC01CD0156
:10030000013083120313CE00112A83120313CF0A84
:100310000319D00A013083120313CC00CD018312DC
:100320000313CE01831203134F08323A031D112A1F
:100330005008003A031D112ACF01D001003083126A
:1003400003135202031DA629053051020318AE29DA
:1003500083120313D10A0319D20A112A003083121F
:1003600003135202031DB62906305102031C112A41
:10037000FF3083120313D107031CD203112A831207
:1003800003134808033A031D112A8312031351086B
:10039000093A031DD8295208003A031DD8298312AF
:1003A0000313CC01CD01013083120313CE00112AB7
:1003B00083120313CF0A0319D00A013083120313E7
:1003C000CC00CD0183120313CE01831203134F0817
:1003D000503A031D112A5008003A031D112ACF017B
:1003E000D0010030831203135202031DF929093092
:1003F00051020318012A83120313D10A0319D20AE6
:10040000112A0030831203135202031D092A0A30F5
:100410005102031C112AFF3083120313D107031C5E
:10042000D20300307522831203135108FF005208D3
:100430008A150A12FE218A110A1200307F22692AC7
:10044000003083120313490403194F2A8312031344
:100450004E08013A031D4F2A831203134808013A3C
:10046000031D382A033083120313D100D2014F2A0F
:10047000831203134808023A031D442A05308312ED
:100480000313D100D2014F2A831203134808033A01
:10049000031D4F2A093083120313D100D2018312A6
:1004A0000313510883160313CA008312031352085F
:1004B00083160313CB0000307522831203135108F7
:1004C000FF0052088A150A12FE218A110A12003012
:1004D0007F22080083120313C4007F084406031D13
:1004E000732A0130742A0030080083120313C600F7
:1004F0000130FE000130FF004608EA2208008312A6
:100500000313C400C5004508031D912A8312031379
:10051000070883120313C400FD304405831203133C
:100520008700080083120313C2000030FD00003072
:10053000FE000030FF0000308A150A1259228A118D
:100540000A120030FD000130FE000030FF000030D4
:100550008A150A1259228A110A12831203134208B9
:10056000C300031DE42A0230831603130705831218
:100570000313C2000310420CC300FD000030FE0054
:100580000030FF0000308A150A1259228A110A121F
:100590000030FE000030FF0000308A150A124622AB
:1005A0008A110A1283120313C200013A031DE42ABE
:1005B0000130FD000130FE000030FF0000308A15E0
:1005C0000A1259228A110A120030FE000030FF0080
:1005D0000030080083120313BE007F08BF007E08AE
:1005E000C0003E08C100031D1F2B4008013A031D37
:1005F000132B3F08013A031D0C2B8312031307082A
:1006000083120313C100C11003103F0DBF0041044A
:100610008312031387001F2B00308A110A127F22D6
:100620008A110A121F2B0030831203134004031D8A
:100630001F2B3E088A110A127F228A110A12080013
:1006400083120313BC00BD003D08031D322B83162B
:100650000313070883120313BD00FD303D05831605
:10066000031387000030FE000030FF0083120313E5
:100670003C088A110A12EA228A110A1208000A307A
:1006800083120313BA070318BB0A3A08143A031D6E
:100690004C2B3B08003A031DF62C83120313BA01BE
:1006A000BB0183120313A9010330FF00831203135C
:1006B00029088A150A12AC228A110A12831203131E
:1006C000AA00AB012A08313EAC000030AD0000307A
:1006D00003182B0FAD072A08313EAA002B08031878
:1006E0002B0F003EAB00AA0A0319AB0A2A0883129B
:1006F000031384008313831203132B1883178312AD
:100700000313000883120313AE002C088312031393
:1007100084008313831203132D1883172E0883126A
:1007200003138000831203132908031DAD2B01302E
:1007300083120313060583120313AC00AD002A08CD
:100740008312031384008313831203132B1883175C
:100750002D08831203138000EA2B83120313290848
:10076000013A031DCB2B02308312031306058312BB
:100770000313AC0003102C0CAD002A0883120313E2
:1007800084008313831203132B1883172D088312FD
:1007900003138000EA2B831203132908023A031D76
:1007A000EA2B043083120313060583120313AC00F3
:1007B00003102C0CAD000310AD0C2A088312031398
:1007C00084008313831203132B1883172D088312BD
:1007D000031380000330FF008312031329088A15D6
:1007E0000A12AC228A110A1283120313AA00AB0167
:1007F0002A08313EAA00003003182B0F003EAB0040
:1008000002302A07AC00AD01AD0D2B08AD072C0856
:100810008312031384008313831203132D18831789
:1008200083120313000883120313AE0004302E0258
:100830000318EF2C0430831203138A00283083122C
:1008400003132E07031C272C831203138A0A82002A
:100850002C2C672C902CCB2C831203132A08831288
:10086000031384008313831203132B18831783123B
:100870000313000883120313AE002E08031DEF2C90
:1008800001302A07AE00AF01AF0D2B08AF072E08CD
:100890008312031384008313831203132F18831707
:1008A00083120313000883120313B0003008031DE2
:1008B000EF2C2C0883120313840083138312031379
:1008C0002D1883170130831203138000EF2C0130A1
:1008D000831203132A07AE00AF01AF0D2B08AF0739
:1008E0002E088312031384008313831203132F181B
:1008F000831783120313000883120313B000300818
:10090000031DEF2C2C08831203138400831383121E
:1009100003132D1883170230831203138000EF2C6A
:10092000831203132A088312031384008313831290
:1009300003132B1883178312031300088312031366
:10094000AE00013A031DEF2C01302A07AE00AF01C3
:10095000AF0D2B08AF072E088312031384008313F7
:10096000831203132F1883178312031300088312B3
:100970000313B000013A031DEF2C2C08831203135C
:1009800084008313831203132D18831703308312FB
:1009900003138000EF2C83120313AA0A0319AB0A76
:1009A0002A088312031384008313831203132B1862
:1009B000831783120313000883120313AE00013A56
:1009C000031DEF2C2C08831203138400831383125E
:1009D00003132D1883170030831203138000831232
:1009E0000313A90A03302902031C542B08008312A5
:1009F0000313A5000330FF0025088A150A12AC2254
:100A00008A110A1283120313A600A7012608313E99
:100A1000A5000030A80000300318270FA8070230F7
:100A2000A5070318A80A250883120313840083135B
:100A300083120313281883178312031300088312E9
:100A40000313A6000800831603130608831203137A
:100A5000A00020100130200483160313860006082E
:100A600083120313A000A010023020048316031386
:100A70008600060883120313A0002011043020040E
:100A800083160313860083120313A0010330FF00B3
:100A90008312031320088A150A12AC228A110A1243
:100AA00083120313A100A2012108313EA3000030EC
:100AB000A40000300318220FA40723088312031395
:100AC00084008313831203132418831701308312C5
:100AD00003138000831203132108313EA30000306A
:100AE000A40022080318220FA407A30A0319A40ACA
:100AF000230883120313840083138312031324181F
:100B0000831701308312031380008312031321081B
:100B1000313EA10022080318220F003EA20002303D
:100B2000A1070318A20A2108831203138400831368
:100B300083120313221883170030831203138000DB
:100B400083120313A00A03302002031C462D080061
:100B500083120313E6007F08E7000030FF00003037
:100B6000D6250030FF000130D6250030FF000230CE
:100B7000D625831203136708C13EE700003003182F
:100B8000013EE80067088312031384008313831275
:100B900003136818831783120313000888000130B9
:100BA000FF00831203136608D6250800831203137F
:100BB000E2007F08E300033062020318282E0530AC
:100BC000831203138A00ED30831203136207031CA0
:100BD000EC2D831203138A0A8200F02D012E162EAB
:100BE00083120313060883120313E200E213630C5B
:100BF000E401E40C6408E500620483120313860038
:100C0000282E83120313060883120313E2006213D3
:100C1000630EF039E4000310E40D0310E40D6408E2
:100C2000E5006204831203138600282E8312031347
:100C3000060883120313E200E212630EF039E400A7
:100C40000310E40D6408E3006204831203138600BA
:100C5000080083120313E000E1010330600203186F
:100C6000682E0630831203138A003F308312031369
:100C70006007031C3E2E831203138A0A8200422E51
:100C80004D2E5C2E8030831203130605831203134E
:100C9000E000600DE101E10D682E40308312031386
:100CA000060583120313E000600E0F39E100031004
:100CB000E10C0310E10C682E2030831203130605AB
:100CC00083120313E000600E0F39E1000310E10C02
:100CD000831203136108080083120313DD007F08E9
:100CE000DE005D08C53EDD0000300318013EDF0078
:100CF0005D088312031384008313831203135F18A8
:100D000083175E0883120313800008008312031305
:100D1000DB00C53EDB0000300318013EDC005B0851
:100D20008312031384008313831203135C18831745
:100D300083120313000808000A3083120313E90723
:100D40000318EA0A69080A3A031DA92E6A08003A3C
:100D5000031DD52E83120313E901EA018316031341
:100D60004E08C53E83120313D90000300318013E1C
:100D7000DA005908831203138400831383120313C8
:100D80005A188317831203130008FF0083160313F6
:100D90004E08A825831603134E08023A031DD22ECF
:100DA000CE01D52E83160313CE0A08008312031337
:100DB000D7008316031388010330FF008312031347
:100DC0005708A825033083120313570203181C2F5A
:100DD0000630831203138A00F63083120313570779
:100DE000031CF52E831203138A0A8200112F052F8C
:100DF000F92E83160313060883120313D8007F30DD
:100E000058058316031386001C2F83160313060848
:100E100083120313D800BF305805831603138600CE
:100E20001C2F83160313060883120313D800DF3028
:100E300058058316031386000030FF008312031346
:100E400057088A110A12D6258A110A1208000A3098
:100E500083160313C8070318C90A4808143A031D68
:100E6000342F4908003A031DB32F83160313C8011A
:100E7000C90102308A110A12F7248A110A12023AB1
:100E8000031D4B2F0130FF0000308A150A12492143
:100E90008A110A12532F0030FF0000308A150A12FF
:100EA00049218A110A12831603134F08013A0319C4
:100EB0005D2F00304F04031D762F0030FF000030FF
:100EC0008A110A126C268A110A120330FF000130BF
:100ED0008A110A126C268A110A120330FF000230AE
:100EE0008A110A126C268A110A12B32F8316031371
:100EF0004F08023A031D952F0030FF0000308A1181
:100F00000A126C268A110A120130FF0001308A1180
:100F10000A126C268A110A120330FF0002308A116D
:100F20000A126C268A110A12B32F831603134F0874
:100F3000033A031DB32F0030FF0000308A110A125C
:100F40006C268A110A120130FF0001308A110A1240
:100F50006C268A110A120230FF0002308A110A122E
:100F60006C268A110A12080000308A110A12D6264D
:100F70008A110A1201308A110A12D6268A110A121F
:100F800002308A110A12D6268A110A120030FF0096
:100F900000308A110A126C268A110A120330FF00EF
:100FA00001308A110A126C268A110A120330FF00DE
:100FB00002308A110A126C268A110A120030FF00D0
:100FC00000308A150A1288218A110A1208008A152F
:100FD0000A12F6218A110A128A150A121E218A1192
:100FE0000A128A110A12B4278A110A128A150A12E1
:100FF000ED218A110A12FB2F08000334003400345B
:101000008630FE000A30FF0080308A150A12652201
:101010008A150A1283160313A1007F08A0008830E6
:10102000A2000A30A300831603132008A40021089D
:10103000A500FF30A007031CA10324082504031901
:10104000982804302207A400A501A50D2308A507B0
:101050002408FE002508FF0080308A150A12652248
:101060008A150A1283160313A7007F08A600220818
:10107000FE002308FF0080308A150A1265228A15B7
:101080000A1283160313A900A5007F08A800A40074
:1010900002302207A400A501A50D2308A5072408F6
:1010A000FE002508FF0080308A150A1265228A1585
:1010B0000A1283160313A500AB007F08A400AA0040
:1010C000831603132608AA002708AB00FF30A607E3
:1010D000031CA7032A082B04031991282808FE00E3
:1010E0002908FF0080308A150A1246228A150A1242
:1010F00083160313AA0024088312031384008313A6
:1011000083160313251883172A08831203138000FC
:1011100083160313A80A0319A90AA40A0319A50A26
:101120006028063083160313A2070318A30A1328A6
:101130008A110A12E72F08000A3083160313BD072D
:101140000318BE0A3D08143A031DA9283E08003AB8
:10115000031D192983160313BD01BE018316031352
:10116000BB010330831603133B0203181229083016
:10117000831203138A00C530831603133B07031C35
:10118000C428831203138A0A8200C828DC28F028A6
:1011900000308A110A12F7248A150A1283160313E3
:1011A000BC00013A031D12290330831603134F02BA
:1011B00003181229CF0A122901308A110A12F724C2
:1011C0008A150A1283160313BC00013A031D122963
:1011D0000230831603134F02031C1229CF03122976
:1011E00002308A110A12F7248A150A128316031391
:1011F000BC00023A031D1229143083160313BF07E3
:101200000318C00A3F08303A031D12294008753AF6
:10121000031D1229BF01C0010230831603134F02C0
:101220000318CF0383160313BB0A03303B02031CCE
:10123000B1280800831603134F08080000308A11F4
:101240000A1220238A150A128A110A1223258A15E6
:101250000A128A150A1240228A150A12080008008A
:1012600083160313B300B4013308031D4529083066
:1012700083120313060583160313B3000310330C04
:10128000B4000310B40C0310B40C83160313340819
:10129000080083160313B0007F08B1003008B200C5
:1012A000031D662983120313060883160313B00077
:1012B000B0110310310DB2000310B20D0310B20DC6
:1012C0003208B1003004831203138600080083162D
:1012D0000313AF008A150A1230218A150A12013A47
:1012E000031D7D290030FF00831603132F088A1584
:1012F0000A1249218A150A1287290130FF00831634
:1013000003132F088A150A1249218A150A120800A8
:1013100083160313AC007F08AD002C08AE00031D3C
:101320009C2983160313060883160313AE00F730B7
:101330002E05831603138600831603132D08FF0062
:101340002C088A150A1249218A150A1208008A11E6
:101350000A129C268A150A128A110A1243208A153B
:101360000A128A150A129C208A150A128A110A1278
:101370003F238A150A128A110A1227278A150A1290
:1013800008008A110A129C268A150A128A110A126A
:101390003F238A150A128A150A129C208A150A12FE
:1013A0008A110A1227278A150A128A110A12432063
:1013B0008A150A1208008316031381160800831683
:1013C0000313CC01831203130B1DE92983160313A6
:1013D000CC0A831603134C080800831203130B1165
:1013E0008B168B17831603138112080083160313C1
:1013F000011581140114811181160800831603134D
:10140000B7007F08B6008330831203139100831660
:101410000313B801831603133808B900BA0137085B
:101420003A02031D152A360839020318282A3B22DE
:101430002D2283160313B90039080319182A29220B
:10144000843083120313910083160313B80A0A2A07
:101450000800831203131211080083160313B50149
:10146000831203138C1C372A83160313B50A8316C1
:10147000031335080800831203138C10121508009B
:10148000831203139214121012110800003A031968
:101490004D2A803A0319542A00347E0884008313AD
:1014A0007F188317000808007F088A007E088200E2
:1014B0000800003A03195D2A08007E08840083139F
:1014C0007F1883177D0880000800003A03196D2AF1
:1014D000803A0319772AFF0100347E0884008313C1
:1014E0007F1883170008FF00840A000808008A1587
:1014F0000A125422FD00FE0FFF03FF0A8A150A128A
:101500005422FC007D08FF007C08080006340034EB
:10151000D1340A34CA34003402340034CD340A34AD
:10152000C134003404340034D3340A34CE340034AB
:1015300001340034FD340734C5340034033400343E
:10154000D4340A34CF34003401340034D5340A346E
:10155000D13400340134003483120313EB007F08CC
:10156000EC00ED010830EE00831203136B1CBA2A65
:101570006C08ED07831203136B08EF0003106F0C68
:10158000EB0003106C0DEF00EC006E03EF00EE00BB
:101590006F08031DB42A6D08080008344834493424
:0C15A00000340034003400340034003407
:02400E00323F3F
:00000001FF
